S01200005350495F4D61737465722E737265635B
S113000029C000003AC0000038C0000036C000001B
S113001034C0000032C0000030C000002EC0000018
S11300202CC000002AC0000028C0000026C0000028
S113003024C0000022C0000020C000001EC0000038
S11300401CC000001AC0000018C0000016C0000048
S113005014C0000011241FBECFE5D8E0DEBFCDBF21
S113006010E0A0E6B0E0E4E0F1E002C005900D92FB
S1130070A037B107D9F70ED043C0C2CF87B3806B86
S113008087BB83E58DB91EB808958FB98EB18823D7
S1130090E9F30895CF93DF93CDB7DEB72F970FB66B
S11300A0F894DEBF0FBECDBFE9DF81EE94E0019787
S11300B0F1F700C000007E0190E1E90EF11C8FE031
S11300C0E0E6F0E0DE01119601900D928A95E1F7E9
S11300D0C49800C08E010F5F1F4FF80181918F01FA
S11300E0D4DFF1E2FA95F1F700000E151F05A9F728
S11300F0C49A89EF90E00197F1F700C00000DFCFC8
S1070100F894FFCF9D
S113010453504920496E697469616C697A65640065
S9030000FC
